:020000040000fa
:080000009e57040000000000ff
:020000040000fa
:100008001c5800001e58000020580000225800000c
:100018009a0200009a020000245800009a02000088
:100028009a0200009a0200009a0200009a02000058
:100038009a0200009a0200009a020000b81000001c
:100048009a0200009a0200009a020000fc56000082
:100058004a5700009a0200009a0200009a02000023
:100068009a0200009a0200009a020000065300005b
:100078009a0200009a0200009a0200009a02000008
:100088009a0200009a0200009a0200009a020000f8
:10009800b21000009a0200009a0200009a020000c2
:1000a8009a0200009a0200009a0200009a020000d8
:1000b8009a0200009a0200009a0200009a020000c8
:1000c8009a0200009a0200009a0200009a020000b8
:1000d8009a0200009a0200009a0200009a020000a8
:1000e8009a0200009a0200009a0200009a02000098
:1000f8009a0200009a0200009a0200009a02000088
:100108009a0200009a0200009a0200009a02000077
:100118009a0200009a0200009a0200009a02000067
:100128009a0200009c5700009a0200009a02000000
:100138009a0200009a0200009a0200009a02000047
:100148009a0200009a0200009a0200009a02000037
:100158009a0200009a0200009a0200009a02000027
:100168009a0200009a0200009a0200009a02000017
:100178009a0200009a0200009a0200009a02000007
:100188009a0200009a0200009a0200009a020000f7
:100198009a0200009a0200009a0200009a020000e7
:1001a8009a0200009a0200009a0200009a020000d7
:1001b8009a0200009a0200009a0200009a020000c7
:1001c8009a0200009a0200009a0200009a020000b7
:1001d8009a0200009a0200009a0200009a020000a7
:1001e8009a0200009a0200009a0200009a02000097
:1001f8009a0200009a0200009a0200009a02000087
:100208009a0200009a0200009a0200009a02000076
:100218009a0200009a0200009a0200009a02000066
:100228009a0200009a0200009a0200009a02000056
:100238009a0200009a0200009a0200009a02000046
:100248009a0200009a0200009a0200009a02000036
:100258009a0200009a0200009a0200009a02000026
:100268009a0200009a0200009a0200009a02000016
:0c0278009a0200009a0200009a020000a6
:020000040000fa
:10040000a1028800800078000000eb001a0037008d
:10041000e280400054a0b4009101ba00e2804000a4
:1004200054a0b4009102ba00e280400054a0b4008d
:100430000002eb00472bde00f507b200a6018800a2
:10044000602ce10008003a000049eb000201e800de
:10045000020039003420ec0002f0a0008301e90022
:10046000f9ff3e00040037006128e100010032007e
:100470000082eb00040007001101ba000200e00056
:10048000e3ff3a000000060004d0a300e20f490099
:100490001c003900810278003549ba000201e800e9
:1004a000020039003420ec0002f0a0008301e900d2
:1004b0000f0032002549ba000201e80002003900ad
:1004c0003420ec0002f0a0008301e90008003200b3
:1004d0000400e0000600320015c9ba000201e8007d
:1004e000020039003420ec0002f0a0008301e90092
:1004f0008180e80054a0b4000300e000e2ff3a006d
:10050000000006009102ba00055978008301e90055
:10051000f7ff3200c82ade00055978008301e900a0
:10052000f3ff32000400e000f1ff320011d9ba00fd
:0c053000eeff37000040da000000fe0083
:020000040000fa
:10053c004610000002000000800000002a1000009d
:10054c000a0000008000000098100000100000005d
:10055c00800000003e100000080000008000000039
:10056c00484a0000c000000080000000001000009d
:10057c002a0000008000000048100000500000001d
:10058c0080000000341000000a0000008000000011
:10059c00003900004811000080000000001100002c
:0c05ac000028000080000000000000009b
:020000040000fa
:1006000000000000000000000000000000000000ea
:100610000000000000100000387c0000fe7c00009c
:10062000381000000000000000920000449200001a
:10063000449200004492000000000000009000007e
:1006400090f0000090be00000808000008080000bc
:1006500000f0000080e00000809e0000101c000000
:10066000101000000070000080800000807c0000fe
:10067000121c0000121200000080000080800000a8
:1006800080fe0000101c0000101000000038000068
:1006900044380000000000000000000000000000de
:1006a0000000000010100000fe10000010fe00000e
:1006b0000000000000880000c8a800009818000092
:1006c00010100000101e000000880000885000007c
:1006d000503e00000808000008080000101000004c
:1006e00010100000f00000000000000000000000fa
:1006f0000000000000000000f010000010100000da
:100700001010000000000000000000001f1000009a
:100710001010000010100000101000001010000059
:100720001f0000000000000000000000101000008a
:1007300010100000ff10000010100000101000004a
:10074000ff000000000000000000000000000000aa
:100750000000000000000000ff000000000000009a
:100760000000000000000000000000000000000089
:10077000ff0000000000000000000000000000007a
:100780000000000000000000ff000000000000006a
:100790000000000000000000000000000000000059
:1007a000ff00000010100000101000001f100000db
:1007b00010100000101000001010000010100000b9
:1007c000f0100000101000001010000010100000c9
:1007d00010100000ff0000000000000000000000fa
:1007e0000000000000000000ff10000010100000da
:1007f0001010000010100000101000001010000079
:10080000101000001010000000020000082000007e
:100810008020000008020000fe00000000800000b0
:10082000200800000208000020800000fe000000f8
:100830000000000000fe000024240000244400000a
:10084000000000000002000004fe000010fe000096
:100850004080000000000000001c0000222000007a
:10086000f820000078a60000400000000000000012
:100870000000000010000000000000000000000068
:10088000007c0000826000001010000000100000da
:100890000000000000100000101000001010000008
:1008a0000010000000000000004800004848000060
:1008b00000000000000000000000000000480000f0
:1008c00048fc000048fc0000484800000000000010
:1008d000001000007c9000007c1200007c100000e2
:1008e0000000000000420000a448000010240000a6
:1008f0004a840000000000000070000088880000aa
:10090000708a0000847a00000000000000180000d7
:1009100010200000000000000000000000000000a7
:100920000008000010200000202000001008000037
:10093000000000000020000010080000080800006f
:10094000102000000000000000000000442800000b
:10095000fe2800004400000000000000000000002d
:1009600010100000fe100000100000000000000049
:100970000000000000000000000000003020000027
:10098000400000000000000000000000fe00000029
:100990000000000000000000000000000000000057
:1009a00000000000303000000000000000020000e5
:1009b000040800001020000040800000000000003b
:1009c00000380000448200008282000044380000a9
:1009d0000000000000100000305000001010000067
:1009e000107c000000000000007c0000820200007b
:1009f0001c60000080fe00000000000000fe0000ff
:100a0000040800001c020000827c000000000000be
:100a1000000800001828000048fe00000808000038
:100a20000000000000fe000080bc0000c2020000c8
:100a3000827c000000000000003c000040800000bc
:100a4000bcc20000827c00000000000000fe00002c
:100a50000204000008100000202000000000000038
:100a6000007c0000828200007c820000827c00000a
:100a700000000000007c0000828600007a02000076
:100a8000047800000000000000000000303000008a
:100a900000000000303000000000000000000000f6
:100aa0003030000000000000302000004000000056
:100ab0000002000008200000802000000802000062
:100ac000000000000000000000fe000000fe00002a
:100ad000000000000000000000800000200800006e
:100ae000020800002080000000000000007c0000e0
:100af000820c000010100000001000000000000038
:100b0000007c0000829e0000a69a0000807c00000d
:100b100000000000001000002844000082fe0000d9
:100b2000828200000000000000fc00004242000041
:100b30007c42000042fc000000000000003c00007d
:100b40004280000080800000423c00000000000065
:100b500000f80000444200004242000044f8000057
:100b60000000000000fe000080800000f88000000f
:100b700080fe00000000000000fe000080800000f9
:100b8000f88000008080000000000000003c0000b1
:100b900042800000808e0000423c00000000000007
:100ba0000082000082820000fe820000828200003b
:100bb00000000000007c0000101000001010000079
:100bc000107c000000000000000e00000404000083
:100bd000040400008478000000000000008200008f
:100be0008cb00000c0b000008c820000000000004b
:100bf00000800000808000008080000080fe0000f7
:100c00000000000000820000c6aa000092820000de
:100c1000828200000000000000820000c2a20000ea
:100c2000928a00008682000000000000007c000024
:100c30008282000082820000827c000000000000ae
:100c400000fc000082820000fc8000008080000028
:100c500000000000007c000082820000828a000008
:100c6000847a00000000000000fc00008282000086
:100c7000fc8800008482000000000000007c00006e
:100c8000828000007c020000827c000000000000e6
:100c900000fe0000101000001010000010100000f6
:100ca00000000000008200008282000082820000ba
:100cb000827c0000000000000082000082440000ee
:100cc00044280000281000000000000000820000fe
:100cd0008282000092920000aa44000000000000fe
:100ce0000082000044280000102800004482000018
:100cf00000000000008200004428000010100000e6
:100d0000101000000000000000fe000004080000b9
:100d10001020000040fe000000000000003c000029
:100d20002020000020200000203c000000000000e7
:100d300000800000402000001008000004020000b5
:100d4000000000000078000008080000080800000b
:100d50000878000000000000001000002844000097
:100d60008200000000000000000000000000000001
:100d7000000000000000000000fe00000000000075
:100d8000003000001008000000000000000000001b
:100d90000000000000000000007c0000027e000057
:100da000867a0000000000000080000080bc000087
:100db000c2820000c2bc0000000000000000000071
:100dc000007c000082800000807e000000000000a7
:100dd00000020000027a000086820000867a00008d
:100de0000000000000000000007c000082fe000007
:100df000807c000000000000001c00002220000099
:100e0000f82000002020000000000000000000008a
:100e1000007a000084780000807c0000827c000062
:100e20000080000080bc0000c282000082820000be
:100e30000000000000100000003000001010000052
:100e4000107c00000000000000040000000400000e
:100e50000404000004840000847800000080000086
:100e60008088000090e000009884000000000000ee
:100e700000300000101000001010000010380000ba
:100e8000000000000000000000c40000aa92000062
:100e900092920000000000000000000000bc000072
:100ea000c2820000828200000000000000000000fa
:100eb000007c000082820000827c000000000000b4
:100ec0000000000000bc0000c2c20000bc800000a6
:100ed0008080000000000000007a0000868600008c
:100ee0007a0200000202000000000000009c0000e6
:100ef00062400000404000000000000000000000d0
:100f0000007c0000807c000002fc0000000000006b
:100f10000020000020f8000020200000241800001d
:100f20000000000000000000008400008484000035
:100f3000847a000000000000000000000082000031
:100f400082440000281000000000000000000000a3
:100f50000082000082920000aa440000000000000d
:100f600000000000008400004830000048840000b9
:100f7000000000000000000000840000848c0000dd
:100f800074040000847800000000000000fe0000ef
:100f90000418000020fe000000000000000e000009
:100fa0001008000030080000100e000000000000d3
:100fb00000100000101000001010000010100000c1
:100fc0000000000000e000001020000018200000d9
:100fd00010e000000000000000620000928c0000a1
:100fe00000000000000000000000000000e0000021
:100ff0009090000090f800002020000020200000c9
:101000000060000090600000906c00001212000070
:10101000120c00000060000090600000906400006e
:101020000c040000040e000000600000906000004e
:10103000906c000012040000081e00000060000018
:1010400090600000907e0000020c0000021c000076
:101050000060000090600000906400000c1400002c
:101060003e0400000060000090600000907e0000e0
:10107000101c0000021c00000060000090600000d6
:1010800090660000081c0000120c000000600000c8
:1010900090600000907e000002040000080800003c
:1010a0000060000090600000906c0000120c0000d6
:1010b000120c00000060000090600000906c0000c6
:1010c000120e000004180000006000009060000094
:1010d000906c0000121e0000121200000060000060
:1010e00090600000907c0000121c0000121c0000a8
:1010f0000060000090600000906e00001010000082
:10110000100e00000060000090600000907c000065
:1011100012120000121c000000600000906000002d
:10112000907e0000101c0000101e000000600000f7
:1011300090600000907e0000101c00001010000065
:10114000006000009070000020cc0000121200002f
:10115000120c0000006000009070000020c400002d
:101160000c040000040e00000060000090700000fd
:1011700020cc000012040000081e000000600000e7
:101180009070000020de0000020c0000021c000035
:10119000006000009070000020c400000c140000eb
:1011a0003e040000006000009070000020de00009f
:1011b000101c0000021c0000006000009070000085
:1011c00020c60000081c0000120c00000060000097
:1011d0009070000020de00000204000008080000fb
:1011e000006000009070000020cc0000120c000095
:1011f000120c0000006000009070000020cc000085
:10120000120e000004180000006000009070000042
:1012100020cc0000121e000012120000006000002e
:101220009070000020dc0000121c0000121c000066
:10123000006000009070000020ce00001010000040
:10124000100e0000006000009070000020dc000024
:1012500012120000121c00000060000090700000dc
:1012600020de0000101c0000101e000000600000c6
:101270009070000020de0000101c00001010000024
:101280000060000090f00000909c0000121200002e
:10129000120c0000001000000010000010100000f0
:1012a000101000000000000000000000107c000092
:1012b00092900000927c000010000000001c0000d2
:1012c00020200000f820000078a600004000000068
:1012d0000060000090f00000909400000c140000ea
:1012e0003e040000008200004428000010fe0000c0
:1012f00010100000000000000060000090f00000ee
:1013000090960000081c0000120c0000003c000039
:10131000403800004438000004780000000000005d
:1013200000000000827c0000447c0000820000007d
:101330000000000000380000449a0000a2a2000053
:101340009a44000038000000007c0000027e00008b
:10135000867a000000fe000000000000001200007d
:101360002448000090480000241200000000000003
:101370000060000090f00000909e0000101000003f
:10138000100e00000060000090f00000909c000033
:1013900012120000121c00000060000090f000001b
:1013a000909e0000101c0000101e00000060000055
:1013b00090f00000909e0000101c00001010000033
:1013c0000038000044380000000000000000000069
:1013d000000000000000000010100000fe100000df
:1013e00010fe00000000000038440000182000003b
:1013f0007c00000000000000000000007c040000f1
:101400001804000078000000000000000000000048
:1014100000e0000090e0000090e400000c140000e8
:101420003e040000000000000042000042420000b4
:10143000665a000040800000007e0000caca00001a
:101440007e0a00000a0a0000000000000000000000
:10145000003000003000000000000000000000002c
:1014600000e0000090e0000090ec0000120c000092
:10147000120c0000103000001010000038000000b6
:101480000000000000000000007c000082820000dc
:10149000827c000000fe00000000000000900000c0
:1014a00048240000122400004890000000000000c2
:1014b00000400000c4480000502400004c9400008c
:1014c0003e04000000400000c4480000502c000012
:1014d00052840000081e000000e0000090e00000c0
:1014e00090fe0000101c0000101e00000010000004
:1014f0000010000010600000827c0000000000006e
:10150000300c00001028000044fe00008282000021
:1015100000000000186000001028000044fe0000d9
:101520008282000000000000384400001028000003
:1015300044fe00008282000000000000324c0000e7
:101540001028000044fe000082820000000000001d
:10155000440000001028000044fe000082820000c9
:1015600000000000384400003838000044fe00004d
:101570008282000000000000003e00005090000049
:101580009cf00000909e000000000000003c000065
:101590004280000080800000423c000008380000cb
:1015a00060180000fe800000f880000080fe00004f
:1015b000000000000c300000fe800000f8800000f9
:1015c00080fe00000000000038440000fe800000a3
:1015d000f880000080fe00000000000044000000d1
:1015e000fe800000f880000080fe00000000000087
:1015f000300c00007c10000010100000107c000077
:1016000000000000186000007c10000010100000b6
:10161000107c000000000000384400007c10000036
:1016200010100000107c00000000000044000000ca
:101630007c10000010100000107c00000000000072
:1016400000e000009090000090ec000012120000fa
:10165000120c0000324c0000c2a20000928a00006e
:101660008682000000000000300c00007c82000038
:1016700082820000827c00000000000018600000f0
:101680007c82000082820000827c0000000000005a
:10169000384400007c82000082820000827c0000ce
:1016a00000000000649800007c820000828200003c
:1016b000827c000000000000440000007c820000ea
:1016c00082820000827c000000000000006e0000aa
:1016d000909000009c900000906e000000000000c0
:1016e000027c0000868a000092a20000c27c0000fa
:1016f00080000000601800008282000082820000ea
:10170000827c0000000000000c300000828200009b
:1017100082820000827c000000000000102800008f
:101720008282000082820000827c000000000000b3
:10173000440000008282000082820000827c00005f
:101740000000000044000000824400002810000057
:10175000101000000000000000e000009090000069
:1017600090fe0000101c0000101e00000038000059
:1017700044840000b8840000a29c000080000000a7
:10178000003000000c7c0000027e0000867a000021
:101790000000000000180000607c0000027e0000d5
:1017a000867a00000000000038440000007c000041
:1017b000027e0000867a000000000000324c00002b
:1017c000007c0000027e0000867a0000000000001d
:1017d00000440000007c0000027e0000867a0000c9
:1017e0000000000038440000387c0000027e000049
:1017f000867a00000000000000000000006c00007d
:10180000127e0000907e000000000000000000003a
:10181000007c000082800000827c0000083800000c
:10182000003000000c7c000082fe0000807c000084
:101830000000000000180000607c000082fe000034
:10184000807c00000000000038440000007c0000a4
:1018500082fe0000807c00000000000000440000c8
:10186000007c000082fe0000807c00000000000080
:10187000006000001830000010100000107c000014
:101880000000000000180000603000001010000090
:10189000107c000000000000384400000030000010
:1018a00010100000107c0000000000000044000048
:1018b0000030000010100000107c0000000000004c
:1018c00000f0000080e00000808c00001212000098
:1018d000120c00006498000000bc0000c2820000ee
:1018e0008282000000000000003000000c7c00003c
:1018f00082820000827c00000000000000180000ce
:10190000607c000082820000827c000000000000f9
:1019100000000000000000000000000000000000c7
:1019200000000000000000000000000000000000b7
:1019300000000000000000000000000000000000a7
:101940000000000000000000000000000000000097
:020000040000fa
:101e00003430ef0000102000a002880001302000d4
:101e1000030020003140ba000210210003014100fc
:101e2000004978000220b000004978003140ba0033
:101e30000250210003014100004978000220b00057
:101e4000004978003140ba000290210003014100ae
:101e5000004978000220b000004978003140ba0003
:101e600002d0210003014100004978000220b000a7
:101e7000004978003140ba000210220003014100fd
:101e8000004978000220b000004978003140ba00d3
:101e90000250220003014100004978000220b000f6
:101ea000004978003140ba0002902200030141004d
:101eb000004978000220b000004978003140ba00a3
:101ec00002d0220003014100004978000220b00046
:101ed000004978003140ba0002102300030141009c
:101ee000004978000220b000004978003140ba0073
:101ef0000250230003014100004978000220b00095
:101f0000004978008301e800001220001098e700e3
:101f1000c0ff37000194240002902300030a200030
:101f20000400200082187800030141008418780022
:101f30008218780003014100841878008218780024
:101f400003014100841878008218780003014100e1
:101f50008418780082187800030141008418780002
:101f600082187800030141008418780082187800f4
:101f700003014100841878008218780003014100b1
:101f800084187800821878000301410084187800d2
:101f900082187800030141008418780082187800c4
:101fa0000301410084187800821878000301410081
:101fb00084187800821878000301410084187800a2
:101fc0008218780003014100841878008218780094
:101fd0000301410084187800821878000301410051
:101fe0008418780082187800030141008418780072
:101ff0008218780003014100841878008218780064
:102000000301410084187800821878000301410020
:102010008418780082187800030141008418780041
:102020008218780003014100841878008218780033
:1020300003014100841878008218780003014100f0
:102040008418780082187800030141008418780011
:102050000000200002902300cf070900001978003b
:10206000018a2400000024004f0009008018780035
:10207000e101b100600524008018780040052400cb
:1020800080187800d00224008018780020032400f3
:1020900080187800200324008018780000032400b2
:1020a0008018780000002400801878008002240046
:1020b0008018780010032400801878004003240062
:1020c00080187800e00224008018780000032400c3
:1020d00080187800500324008018780090022400b3
:1020e0008018780080172000138eaf0000002000b9
:1020f000b08188003830ef001021ef00b09420004c
:10210000138eaf00f0952000600888000621ef00d4
:1021100011e1a8004388a80043a8a80043c8a8006c
:1021200000e8a90020e8a8001e21ef001e61a80019
:1021300070d12000d0088800f0082000e008880056
:102140001821ef001421ef001fe1a8004e08a8009d
:102150004e28a9004e48a8000388a9002388a8009b
:10216000000006003430ec000388a900004006009f
:10217000809fbe00821f7800b08180003630ec0066
:1021800000060100da023700d9023700d802370012
:10219000d7023700d6023700b7023700b602370041
:1021a000b5023700b4023700b3023700dc02370053
:1021b000e7023700da023700e5023700d8023700bd
:1021c000e3023700d6023700e1023700d4023700bd
:1021d000df023700d2023700dd023700d0023700bd
:1021e000db023700ce023700d9023700cc023700bd
:1021f000d7023700ca023700d5023700c8023700bd
:10220000d3023700c6023700d1023700c4023700bc
:10221000cf023700c2023700cd023700c0023700bc
:10222000cb023700be023700c9023700bc023700bc
:10223000c7023700ba023700c5023700b8023700bc
:10224000c3023700b6023700c1023700b4023700bc
:10225000bf023700b2023700bd023700b0023700bc
:10226000bb023700ae023700b9023700ac023700bc
:10227000b7023700aa023700b5023700a8023700bc
:10228000b3023700a6023700b1023700a4023700bc
:10229000af023700a2023700ad023700a0023700bc
:1022a000ab0237009e023700a90237009c023700bc
:1022b000a70237009a023700a502370098023700bc
:1022c000a302370096023700a102370094023700bc
:1022d0009f023700920237009a023700a0023700af
:1022e0009f0237009e0237009d0237009c02370094
:1022f0009b0237009a023700990237009802370094
:102300009702370096023700950237009402370093
:102310009302370092023700910237009002370093
:102320008f0237008e0237008d0237008c02370093
:102330008b0237008a023700890237008802370093
:102340008702370086023700850237008402370093
:102350008302370082023700810237008002370093
:102360007f0237007e0237007d0237007c02370093
:102370007b0237007a023700790237007802370093
:102380007702370076023700750237007402370093
:102390007302370072023700710237007002370093
:1023a0006f0237006e0237006d0237006c02370093
:1023b0006b0237006a023700690237006802370093
:1023c0006702370066023700650237006402370093
:1023d0006302370062023700610237006002370093
:1023e0005f0237005e0237005d0237005c02370093
:1023f0005b0237005a023700590237005802370093
:102400005702370056023700550237005402370092
:102410005302370052023700510237005002370092
:102420004f0237004e0237004d0237004c02370092
:102430004b0237004a023700490237004802370092
:102440004702370046023700450237004402370092
:102450004302370042023700410237004002370092
:102460003f0237003e0237003d0237003c02370092
:102470003b0237003a023700390237003802370092
:102480003702370036023700350237003402370092
:102490003302370032023700310237003002370092
:1024a0002f0237002e0237002d0237002c02370092
:1024b0002b0237002a023700290237002802370092
:1024c0002702370026023700250237002402370092
:1024d0002302370022023700210237002002370092
:1024e0001f0237001e0237001d0237001c02370092
:1024f0001b0237001a023700190237001802370092
:102500001702370016023700150237001402370091
:102510001302370012023700110237001002370091
:102520000f0237000e0237000d0237000c02370091
:102530000b0237000a023700090237000802370091
:102540000702370006023700050237000402370091
:102550000302370002023700010237000002370091
:10256000ff013700fe013700fd013700fc01370095
:10257000fb013700fa013700f9013700f801370095
:10258000f7013700f6013700f5013700f401370095
:10259000f3013700f2013700f1013700f001370095
:1025a000ef013700ee013700ed013700ec01370095
:1025b000eb013700ea013700e9013700e801370095
:1025c000e7013700e6013700e5013700e401370095
:1025d000e3013700e2013700e1013700e001370095
:1025e000df013700de013700dd013700dc01370095
:1025f000db013700da013700d9013700d801370095
:10260000d7013700d6013700d5013700d401370094
:10261000d3013700d2013700d1013700d001370094
:10262000cf013700ce013700cd013700cc01370094
:10263000cb013700ca013700c9013700c801370094
:10264000c7013700c6013700c5013700c401370094
:10265000c3013700c2013700c1013700c001370094
:10266000bf013700be013700bd013700bc01370094
:10267000bb013700ba013700b9013700b801370094
:10268000b7013700b6013700b5013700b401370094
:10269000b3013700b2013700b1013700a0013700a4
:1026a000ab0137009e013700a9013700c301370095
:1026b000c4013700c5013700c6013700c701370024
:1026c000c8013700c9013700ca013700cb01370004
:1026d000cc013700920137009c0137009001370090
:1026e0009b0137008e013700990137008c013700bc
:1026f000970137008a0137009501370088013700bc
:1027000093013700860137009101370084013700bb
:102710008f013700820137008d01370080013700bb
:102720008b0137007e013700890137007c013700bb
:10273000870137007a0137008501370078013700bb
:102740008301370076013700810137004a013700e5
:10275000490137004801370047013700460137007b
:1027600055013700d8013700d7013700d6013700af
:10277000d5013700d4013700b5013700b401370067
:10278000b3013700b2013700b1013700da01370079
:10279000e5013700d8013700e3013700d6013700e3
:1027a000e1013700d4013700df013700d2013700e3
:1027b000dd013700d0013700db013700ce013700e3
:1027c000d9013700cc013700d7013700ca013700e3
:1027d000d5013700c8013700d3013700c6013700e3
:1027e000d1013700c4013700cf013700c2013700e3
:1027f000cd013700c0013700cb013700be013700e3
:10280000c9013700bc013700c7013700ba013700e2
:10281000c5013700b8013700c3013700b6013700e2
:10282000c1013700b4013700bf013700b2013700e2
:10283000bd013700b0013700bb013700ae013700e2
:10284000b9013700ac013700b7013700aa013700e2
:10285000b5013700a8013700b0013700b6013700d5
:10286000b5013700b4013700b3013700b2013700ba
:10287000b1013700b0013700af013700ae013700ba
:10288000ad013700ac013700ab013700aa013700ba
:10289000a9013700a8013700a7013700a6013700ba
:1028a000a5013700a4013700a3013700a2013700ba
:1028b000a1013700a00137009f0137009e013700ba
:1028c0009d0137009c0137009b0137009a013700ba
:1028d00099013700980137009701370096013700ba
:1028e00095013700940137009301370092013700ba
:1028f00091013700900137008f0137008e013700ba
:102900008d0137008c0137008b0137008a013700b9
:1029100089013700880137008701370086013700b9
:1029200085013700840137008301370082013700b9
:1029300081013700800137007f0137007e013700b9
:102940007d0137007c0137007b0137007a013700b9
:1029500079013700780137007701370076013700b9
:1029600075013700740137007301370072013700b9
:1029700071013700700137006f0137006e013700b9
:102980006d0137006c0137006b0137006a013700b9
:1029900069013700680137006701370066013700b9
:1029a00065013700640137006301370062013700b9
:1029b00061013700600137005f0137005e013700b9
:1029c0005d0137005c0137005b0137005a013700b9
:1029d00059013700580137005701370056013700b9
:1029e00055013700540137005301370052013700b9
:1029f00051013700500137004f0137004e013700b9
:102a00004d0137004c0137004b0137004a013700b8
:102a100049013700480137004701370046013700b8
:102a200045013700440137004301370042013700b8
:102a300041013700400137003f0137003e013700b8
:102a40003d0137003c0137003b0137003a013700b8
:102a500039013700380137003701370036013700b8
:102a600035013700340137003301370032013700b8
:102a700031013700300137002f0137002e013700b8
:102a80002d0137002c0137002b0137002a013700b8
:102a900029013700280137002701370026013700b8
:102aa00025013700240137002301370022013700b8
:102ab00021013700200137001f0137001e013700b8
:102ac0001d0137001c0137001b0137001a013700b8
:102ad00019013700180137001701370016013700b8
:102ae00015013700140137001301370012013700b8
:102af00011013700100137000f0137000e013700b8
:102b00000d0137000c0137000b0137000a013700b7
:102b100009013700080137000701370006013700b7
:102b200005013700040137000301370002013700b7
:102b30000101370000013700ff003700fe003700b9
:102b4000fd003700fc003700fb003700fa003700bb
:102b5000f9003700f8003700f7003700f6003700bb
:102b6000f5003700f4003700f3003700f2003700bb
:102b7000f1003700f0003700ef003700ee003700bb
:102b8000ed003700ec003700eb003700ea003700bb
:102b9000e9003700e8003700e7003700e6003700bb
:102ba000e5003700e4003700e3003700e2003700bb
:102bb000e1003700e0003700df003700de003700bb
:102bc000dd003700dc003700db003700da003700bb
:102bd000d9003700d8003700d7003700d6003700bb
:102be000d5003700d4003700d3003700d2003700bb
:102bf000d1003700d0003700cf003700ce003700bb
:102c0000cd003700cc003700cb003700ca003700ba
:102c1000c9003700c8003700c7003700dd003700a3
:102c2000de003700df003700e0003700e10037004a
:102c3000e2003700e3003700e4003700e50037002a
:102c4000e6003700ac003700b6003700aa003700b6
:102c5000b5003700a8003700b3003700a6003700e2
:102c6000b10037007a00370079003700780037006c
:102c700077003700860037003600f8000e20a100ec
:102c8000ae70880095000900000000000e20a00032
:102c9000ae70880000942400d0818800c08180003c
:102ca000e081880000e8a9003600f9004f017800b3
:102cb0004f00be00004006003600f8000e20a100c4
:102cc000ae70880095000900000000000e20a000f2
:102cd000ae70880000002000b081880000e8a900e4
:102ce0003600f9004f0178004f00be00004006009a
:102cf0003600f8000e20a100ae708800c908090057
:102d0000000000000e20a000ae70880000e8a900be
:102d10003600f9004f0178004f00be000040060069
:102d20003600f8000e20a100ae7088002b010900cb
:102d3000000000000e20a000ae7088003600f900f0
:102d4000030037002f1e070001003700271e070071
:102d500000e8a9004f0178004f00be0000400600c7
:102d60003600f8000e20a100ae708800d0818000ef
:102d70008000900010009000280109000000000071
:102d80000e20a000ae708800a70007003c10ec00e9
:102d90006a00e10003003a003ab0ec003ab0ec00ff
:102da0000000eb00e081880000e8a9003600f9008f
:102db0004f0178004f00be000040060002102100c5
:102dc000120037000250210010003700029021004d
:102dd0000e00370002d021000c0037000210220044
:102de0000a0037000250220008003700029022003b
:102df0000600370002d02200040037000210230032
:102e00000200370002502300000037003600f800af
:102e10000e20a100ae708800018a24002a0109005a
:102e2000000000000e20a000ae7088000f00090016
:102e300000000000481802000000000000e8a9009f
:102e40003600f9004f0178004f00be000040060038
:102e50003600f8000e20a100ae7088009500090031
:102e6000000000000e20a000ae7088000094240036
:102e7000d0818800c0818000e081880000e8a9003e
:102e80003600f9004f0178004f00be0000400600f8
:102e90003600f8000e20a100ae70880095000900f1
:102ea000000000000e20a000ae70880080172000f7
:102eb000b081880000e8a9003600f9004f017800d1
:102ec0004f00be00004006003600f8000e20a100b2
:102ed000ae708800c9080900000000000e20a000a4
:102ee000ae70880000e8a9003600f9004f017800b4
:102ef0004f00be00004006003600f8000e20a10082
:102f0000ae7088002b010900000000000e20a00018
:102f1000ae7088003600f90003003700b91d0700c5
:102f200001003700b11d070000e8a9004f0178003b
:102f30004f00be00004006003600f8000e20a10041
:102f4000ae708800d081800080009000100090005a
:102f500028010900000000000e20a000ae708800cb
:102f6000310007003c10ec006a00e10003003a0069
:102f70003ab0ec003ab0ec000000eb00e0818800d1
:102f800000e8a9003600f9004f0178004f00be00ac
:102f900000400600021021001200370002502100fc
:102fa00010003700029021000e00370002d02100ef
:102fb0000c003700021022000a00370002502200e5
:102fc00008003700029022000600370002d02200dd
:102fd00004003700021023000200370002502300d3
:102fe000000037003600f8000e20a100ae70880007
:102ff000018a24002a010900000000000e20a00020
:10300000ae7088000f0009000000000048180200a0
:103010000000000000e8a9003600f9004f01780028
:103020004f00be0000400600e28180000006010063
:1030300003003700070037000b0037000f00370090
:103040004a11dd00001021000201400000000000d4
:103050000f0037004a11dd0000102100020140007e
:1030600000000000c40c37004111de004a11dd00f1
:103070000010210002014000bf0c37004111de00aa
:103080004a11dd000050220002014000ba0c370056
:10309000849fbe00869fbe00889fbe00e20209009a
:1030a00000000000449a2400f51f20000012eb00ed
:1030b000180020005470a3000e40ad002e70880050
:1030c00031037800850363001460a3000e40ad0057
:1030d0002e708800e2c37b00074378001450a300e1
:1030e0000e40ad002e7088003470af000043eb003e
:1030f0001440a3000e40ad002e70880006f0a7001b
:10310000860378001430a3000e40ad002e708800b6
:1031100006e0a70087c3ea001420a3000e40ad001c
:103120002e70880017029800190020001410a300c8
:103130000e40ad002e70880006c0a70009002000d8
:103140001400a3000e40ad002e7088004e00200039
:10315000090478005470a3000e40ad002e70880062
:1031600031037800850363001460a3000e40ad00b6
:103170002e708800e2c37b00074378001450a30040
:103180000e40ad002e7088003470af000043eb009d
:103190001440a3000e40ad002e70880006f0a7007a
:1031a000860378001430a3000e40ad002e70880016
:1031b00006e0a70087c3ea001420a3000e40ad007c
:1031c0002e70880017029800190020001410a30028
:1031d0000e40ad002e70880006c0a7000900200038
:1031e0001400a3000e40ad002e7088004e00200099
:1031f000090478005470a3000e40ad002e708800c2
:1032000031037800850363001460a3000e40ad0015
:103210002e708800e2c37b00074378001450a3009f
:103220000e40ad002e7088003470af000043eb00fc
:103230001440a3000e40ad002e70880006f0a700d9
:10324000860378001430a3000e40ad002e70880075
:1032500006e0a70087c3ea001420a3000e40ad00db
:103260002e70880017029800190020001410a30087
:103270000e40ad002e70880006c0a7000900200097
:103280001400a3000e40ad002e7088004e002000f8
:10329000090478005470a3000e40ad002e70880021
:1032a00031037800850363001460a3000e40ad0075
:1032b0002e708800e2c37b00074378001450a300ff
:1032c0000e40ad002e7088003470af000043eb005c
:1032d0001440a3000e40ad002e70880006f0a70039
:1032e000860378001430a3000e40ad002e708800d5
:1032f00006e0a70087c3ea001420a3000e40ad003b
:103300002e70880017029800190020001410a300e6
:103310000e40ad002e70880006c0a70009002000f6
:103320001400a3000e40ad002e7088004e00200057
:10333000090478005470a3000e40ad002e70880080
:1033400031037800850363001460a3000e40ad00d4
:103350002e708800e2c37b00074378001450a3005e
:103360000e40ad002e7088003470af000043eb00bb
:103370001440a3000e40ad002e70880006f0a70098
:10338000860378001430a3000e40ad002e70880034
:1033900006e0a70087c3ea001420a3000e40ad009a
:1033a0002e70880017029800190020001410a30046
:1033b0000e40ad002e70880006c0a7000900200056
:1033c0001400a3000e40ad002e7088004e002000b7
:1033d000090478005470a3000e40ad002e708800e0
:1033e00031037800850363001460a3000e40ad0034
:1033f0002e708800e2c37b00074378001450a300be
:103400000e40ad002e7088003470af000043eb001a
:103410001440a3000e40ad002e70880006f0a700f7
:10342000860378001430a3000e40ad002e70880093
:1034300006e0a70087c3ea001420a3000e40ad00f9
:103440002e70880017029800190020001410a300a5
:103450000e40ad002e70880006c0a70009002000b5
:103460001400a3000e40ad002e7088004e00200016
:10347000090478005470a3000e40ad002e7088003f
:1034800031037800850363001460a3000e40ad0093
:103490002e708800e2c37b00074378001450a3001d
:1034a0000e40ad002e7088003470af000043eb007a
:1034b0001440a3000e40ad002e70880006f0a70057
:1034c000860378001430a3000e40ad002e708800f3
:1034d00006e0a70087c3ea001420a3000e40ad0059
:1034e0002e70880017029800190020001410a30005
:1034f0000e40ad002e70880006c0a7000900200015
:103500001400a3000e40ad002e7088004e00200075
:10351000090478005470a3000e40ad002e7088009e
:1035200031037800850363001460a3000e40ad00f2
:103530002e708800e2c37b00074378001450a3007c
:103540000e40ad002e7088003470af000043eb00d9
:103550001440a3000e40ad002e70880006f0a700b6
:10356000860378001430a3000e40ad002e70880052
:1035700006e0a70087c3ea001420a3000e40ad00b8
:103580002e70880017029800190020001410a30064
:103590000e40ad002e70880006c0a7000900200074
:1035a0001400a3000e40ad002e7088004e002000d5
:1035b000090478005470a3000e40ad002e708800fe
:1035c00031037800850363001460a3000e40ad0052
:1035d0002e708800e2c37b00074378001450a300dc
:1035e0000e40ad002e7088003470af000043eb0039
:1035f0001440a3000e40ad002e70880006f0a70016
:10360000860378001430a3000e40ad002e708800b1
:1036100006e0a70087c3ea001420a3000e40ad0017
:103620002e70880017029800190020001410a300c3
:103630000e40ad002e70880006c0a70009002000d3
:103640001400a3000e40ad002e7088004e00200034
:10365000090478005470a3000e40ad002e7088005d
:1036600031037800850363001460a3000e40ad00b1
:103670002e708800e2c37b00074378001450a3003b
:103680000e40ad002e7088003470af000043eb0098
:103690001440a3000e40ad002e70880006f0a70075
:1036a000860378001430a3000e40ad002e70880011
:1036b00006e0a70087c3ea001420a3000e40ad0077
:1036c0002e70880017029800190020001410a30023
:1036d0000e40ad002e70880006c0a7000900200033
:1036e0001400a3000e40ad002e7088004e00200094
:1036f000090478005470a3000e40ad002e708800bd
:1037000031037800850363001460a3000e40ad0010
:103710002e708800e2c37b00074378001450a3009a
:103720000e40ad002e7088003470af000043eb00f7
:103730001440a3000e40ad002e70880006f0a700d4
:10374000860378001430a3000e40ad002e70880070
:1037500006e0a70087c3ea001420a3000e40ad00d6
:103760002e70880017029800190020001410a30082
:103770000e40ad002e70880006c0a7000900200092
:103780001400a3000e40ad002e7088004e002000f3
:10379000090478005470a3000e40ad002e7088001c
:1037a00031037800850363001460a3000e40ad0070
:1037b0002e708800e2c37b00074378001450a300fa
:1037c0000e40ad002e7088003470af000043eb0057
:1037d0001440a3000e40ad002e70880006f0a70034
:1037e000860378001430a3000e40ad002e708800d0
:1037f00006e0a70087c3ea001420a3000e40ad0036
:103800002e70880017029800190020001410a300e1
:103810000e40ad002e70880006c0a70009002000f1
:103820001400a3000e40ad002e7088004e00200052
:10383000090478005470a3000e40ad002e7088007b
:1038400031037800850363001460a3000e40ad00cf
:103850002e708800e2c37b00074378001450a30059
:103860000e40ad002e7088003470af000043eb00b6
:103870001440a3000e40ad002e70880006f0a70093
:10388000860378001430a3000e40ad002e7088002f
:1038900006e0a70087c3ea001420a3000e40ad0095
:1038a0002e70880017029800190020001410a30041
:1038b0000e40ad002e70880006c0a7000900200051
:1038c0001400a3000e40ad002e7088004e002000b2
:1038d000090478005470a3000e40ad002e708800db
:1038e00031037800850363001460a3000e40ad002f
:1038f0002e708800e2c37b00074378001450a300b9
:103900000e40ad002e7088003470af000043eb0015
:103910001440a3000e40ad002e70880006f0a700f2
:10392000860378001430a3000e40ad002e7088008e
:1039300006e0a70087c3ea001420a3000e40ad00f4
:103940002e70880017029800190020001410a300a0
:103950000e40ad002e70880006c0a70009002000b0
:103960001400a3000e40ad002e7088004e00200011
:10397000090478005470a3000e40ad002e7088003a
:1039800031037800850363001460a3000e40ad008e
:103990002e708800e2c37b00074378001450a30018
:1039a0000e40ad002e7088003470af000043eb0075
:1039b0001440a3000e40ad002e70880006f0a70052
:1039c000860378001430a3000e40ad002e708800ee
:1039d00006e0a70087c3ea001420a3000e40ad0054
:1039e0002e70880017029800190020001410a30000
:1039f0000e40ad002e70880006c0a7000900200010
:103a00001400a3000e40ad002e7088004e00200070
:103a1000090478005470a3000e40ad002e70880099
:103a200031037800850363001460a3000e40ad00ed
:103a30002e708800e2c37b00074378001450a30077
:103a40000e40ad002e7088003470af000043eb00d4
:103a50001440a3000e40ad002e70880006f0a700b1
:103a6000860378001430a3000e40ad002e7088004d
:103a700006e0a70087c3ea001420a3000e40ad00b3
:103a80002e70880017029800190020001410a3005f
:103a90000e40ad002e70880006c0a700090020006f
:103aa0001400a3000e40ad002e7088004e002000d0
:103ab000090478005470a3000e40ad002e708800f9
:103ac00031037800850363001460a3000e40ad004d
:103ad0002e708800e2c37b00074378001450a300d7
:103ae0000e40ad002e7088003470af000043eb0034
:103af0001440a3000e40ad002e70880006f0a70011
:103b0000860378001430a3000e40ad002e708800ac
:103b100006e0a70087c3ea001420a3000e40ad0012
:103b20002e70880017029800190020001410a300be
:103b30000e40ad002e70880006c0a70009002000ce
:103b40001400a3000e40ad002e7088004e0020002f
:103b5000090478005470a3000e40ad002e70880058
:103b600031037800850363001460a3000e40ad00ac
:103b70002e708800e2c37b00074378001450a30036
:103b80000e40ad002e7088003470af000043eb0093
:103b90001440a3000e40ad002e70880006f0a70070
:103ba000860378001430a3000e40ad002e7088000c
:103bb00006e0a70087c3ea001420a3000e40ad0072
:103bc0002e70880017029800190020001410a3001e
:103bd0000e40ad002e70880006c0a700090020002e
:103be0001400a3000e40ad002e7088004e0020008f
:103bf000090478005470a3000e40ad002e708800b8
:103c000031037800850363001460a3000e40ad000b
:103c10002e708800e2c37b00074378001450a30095
:103c20000e40ad002e7088003470af000043eb00f2
:103c30001440a3000e40ad002e70880006f0a700cf
:103c4000860378001430a3000e40ad002e7088006b
:103c500006e0a70087c3ea001420a3000e40ad00d1
:103c60002e70880017029800190020001410a3007d
:103c70000e40ad002e70880006c0a700090020008d
:103c80001400a3000e40ad002e7088004e002000ee
:103c9000090478005470a3000e40ad002e70880017
:103ca00031037800850363001460a3000e40ad006b
:103cb0002e708800e2c37b00074378001450a300f5
:103cc0000e40ad002e7088003470af000043eb0052
:103cd0001440a3000e40ad002e70880006f0a7002f
:103ce000860378001430a3000e40ad002e708800cb
:103cf00006e0a70087c3ea001420a3000e40ad0031
:103d00002e70880017029800190020001410a300dc
:103d10000e40ad002e70880006c0a70009002000ec
:103d20001400a3000e40ad002e7088004e0020004d
:103d3000090478005470a3000e40ad002e70880076
:103d400031037800850363001460a3000e40ad00ca
:103d50002e708800e2c37b00074378001450a30054
:103d60000e40ad002e7088003470af000043eb00b1
:103d70001440a3000e40ad002e70880006f0a7008e
:103d8000860378001430a3000e40ad002e7088002a
:103d900006e0a70087c3ea001420a3000e40ad0090
:103da0002e70880017029800190020001410a3003c
:103db0000e40ad002e70880006c0a700090020004c
:103dc0001400a3000e40ad002e7088004e002000ad
:103dd000090478005470a3000e40ad002e708800d6
:103de00031037800850363001460a3000e40ad002a
:103df0002e708800e2c37b00074378001450a300b4
:103e00000e40ad002e7088003470af000043eb0010
:103e10001440a3000e40ad002e70880006f0a700ed
:103e2000860378001430a3000e40ad002e70880089
:103e300006e0a70087c3ea001420a3000e40ad00ef
:103e40002e70880017029800190020001410a3009b
:103e50000e40ad002e70880006c0a70009002000ab
:103e60001400a3000e40ad002e7088004e0020000c
:103e7000090478005470a3000e40ad002e70880035
:103e800031037800850363001460a3000e40ad0089
:103e90002e708800e2c37b00074378001450a30013
:103ea0000e40ad002e7088003470af000043eb0070
:103eb0001440a3000e40ad002e70880006f0a7004d
:103ec000860378001430a3000e40ad002e708800e9
:103ed00006e0a70087c3ea001420a3000e40ad004f
:103ee0002e70880017029800190020001410a300fb
:103ef0000e40ad002e70880006c0a700090020000b
:103f00001400a3000e40ad002e7088004e0020006b
:103f1000090478005470a3000e40ad002e70880094
:103f200031037800850363001460a3000e40ad00e8
:103f30002e708800e2c37b00074378001450a30072
:103f40000e40ad002e7088003470af000043eb00cf
:103f50001440a3000e40ad002e70880006f0a700ac
:103f6000860378001430a3000e40ad002e70880048
:103f700006e0a70087c3ea001420a3000e40ad00ae
:103f80002e70880017029800190020001410a3005a
:103f90000e40ad002e70880006c0a700090020006a
:103fa0001400a3000e40ad002e7088004e002000cb
:103fb000090478005470a3000e40ad002e708800f4
:103fc00031037800850363001460a3000e40ad0048
:103fd0002e708800e2c37b00074378001450a300d2
:103fe0000e40ad002e7088003470af000043eb002f
:103ff0001440a3000e40ad002e70880006f0a7000c
:10400000860378001430a3000e40ad002e708800a7
:1040100006e0a70087c3ea001420a3000e40ad000d
:104020002e70880017029800190020001410a300b9
:104030000e40ad002e70880006c0a70009002000c9
:104040001400a3000e40ad002e7088004e0020002a
:10405000090478005470a3000e40ad002e70880053
:1040600031037800850363001460a3000e40ad00a7
:104070002e708800e2c37b00074378001450a30031
:104080000e40ad002e7088003470af000043eb008e
:104090001440a3000e40ad002e70880006f0a7006b
:1040a000860378001430a3000e40ad002e70880007
:1040b00006e0a70087c3ea001420a3000e40ad006d
:1040c0002e70880017029800190020001410a30019
:1040d0000e40ad002e70880006c0a7000900200029
:1040e0001400a3000e40ad002e7088004e0020008a
:1040f000090478005470a3000e40ad002e708800b3
:1041000031037800850363001460a3000e40ad0006
:104110002e708800e2c37b00074378001450a30090
:104120000e40ad002e7088003470af000043eb00ed
:104130001440a3000e40ad002e70880006f0a700ca
:10414000860378001430a3000e40ad002e70880066
:1041500006e0a70087c3ea001420a3000e40ad00cc
:104160002e70880017029800190020001410a30078
:104170000e40ad002e70880006c0a7000900200088
:104180001400a3000e40ad002e7088004e002000e9
:10419000090478005470a3000e40ad002e70880012
:1041a00031037800850363001460a3000e40ad0066
:1041b0002e708800e2c37b00074378001450a300f0
:1041c0000e40ad002e7088003470af000043eb004d
:1041d0001440a3000e40ad002e70880006f0a7002a
:1041e000860378001430a3000e40ad002e708800c6
:1041f00006e0a70087c3ea001420a3000e40ad002c
:104200002e70880017029800190020001410a300d7
:104210000e40ad002e70880006c0a70009002000e7
:104220001400a3000e40ad002e7088004e00200048
:10423000090478005470a3000e40ad002e70880071
:1042400031037800850363001460a3000e40ad00c5
:104250002e708800e2c37b00074378001450a3004f
:104260000e40ad002e7088003470af000043eb00ac
:104270001440a3000e40ad002e70880006f0a70089
:10428000860378001430a3000e40ad002e70880025
:1042900006e0a70087c3ea001420a3000e40ad008b
:1042a0002e70880017029800190020001410a30037
:1042b0000e40ad002e70880006c0a7000900200047
:1042c0001400a3000e40ad002e7088004e002000a8
:1042d000090478005470a3000e40ad002e708800d1
:1042e00031037800850363001460a3000e40ad0025
:1042f0002e708800e2c37b00074378001450a300af
:104300000e40ad002e7088003470af000043eb000b
:104310001440a3000e40ad002e70880006f0a700e8
:10432000860378001430a3000e40ad002e70880084
:1043300006e0a70087c3ea001420a3000e40ad00ea
:104340002e70880017029800190020001410a30096
:104350000e40ad002e70880006c0a70009002000a6
:104360001400a3000e40ad002e7088004e00200007
:10437000090478005470a3000e40ad002e70880030
:1043800031037800850363001460a3000e40ad0084
:104390002e708800e2c37b00074378001450a3000e
:1043a0000e40ad002e7088003470af000043eb006b
:1043b0001440a3000e40ad002e70880006f0a70048
:1043c000860378001430a3000e40ad002e708800e4
:1043d00006e0a70087c3ea001420a3000e40ad004a
:1043e0002e70880017029800190020001410a300f6
:1043f0000e40ad002e70880006c0a7000900200006
:104400001400a3000e40ad002e7088004e00200066
:10441000090478005470a3000e40ad002e7088008f
:1044200031037800850363001460a3000e40ad00e3
:104430002e708800e2c37b00074378001450a3006d
:104440000e40ad002e7088003470af000043eb00ca
:104450001440a3000e40ad002e70880006f0a700a7
:10446000860378001430a3000e40ad002e70880043
:1044700006e0a70087c3ea001420a3000e40ad00a9
:104480002e70880017029800190020001410a30055
:104490000e40ad002e70880006c0a7000900200065
:1044a0001400a3000e40ad002e7088004e002000c6
:1044b000090478005470a3000e40ad002e708800ef
:1044c00031037800850363001460a3000e40ad0043
:1044d0002e708800e2c37b00074378001450a300cd
:1044e0000e40ad002e7088003470af000043eb002a
:1044f0001440a3000e40ad002e70880006f0a70007
:10450000860378001430a3000e40ad002e708800a2
:1045100006e0a70087c3ea001420a3000e40ad0008
:104520002e70880017029800190020001410a300b4
:104530000e40ad002e70880006c0a70009002000c4
:104540001400a3000e40ad002e7088004e00200025
:10455000090478005470a3000e40ad002e7088004e
:1045600031037800850363001460a3000e40ad00a2
:104570002e708800e2c37b00074378001450a3002c
:104580000e40ad002e7088003470af000043eb0089
:104590001440a3000e40ad002e70880006f0a70066
:1045a000860378001430a3000e40ad002e70880002
:1045b00006e0a70087c3ea001420a3000e40ad0068
:1045c0002e70880017029800190020001410a30014
:1045d0000e40ad002e70880006c0a7000900200024
:1045e0001400a3000e40ad002e7088004e00200085
:1045f000090478005470a3000e40ad002e708800ae
:1046000031037800850363001460a3000e40ad0001
:104610002e708800e2c37b00074378001450a3008b
:104620000e40ad002e7088003470af000043eb00e8
:104630001440a3000e40ad002e70880006f0a700c5
:10464000860378001430a3000e40ad002e70880061
:1046500006e0a70087c3ea001420a3000e40ad00c7
:104660002e70880017029800190020001410a30073
:104670000e40ad002e70880006c0a7000900200083
:104680001400a3000e40ad002e7088004e002000e4
:10469000090478005470a3000e40ad002e7088000d
:1046a00031037800850363001460a3000e40ad0061
:1046b0002e708800e2c37b00074378001450a300eb
:1046c0000e40ad002e7088003470af000043eb0048
:1046d0001440a3000e40ad002e70880006f0a70025
:1046e000860378001430a3000e40ad002e708800c1
:1046f00006e0a70087c3ea001420a3000e40ad0027
:104700002e70880017029800190020001410a300d2
:104710000e40ad002e70880006c0a70009002000e2
:104720001400a3000e40ad002e7088004e00200043
:10473000090478005470a3000e40ad002e7088006c
:1047400031037800850363001460a3000e40ad00c0
:104750002e708800e2c37b00074378001450a3004a
:104760000e40ad002e7088003470af000043eb00a7
:104770001440a3000e40ad002e70880006f0a70084
:10478000860378001430a3000e40ad002e70880020
:1047900006e0a70087c3ea001420a3000e40ad0086
:1047a0002e70880017029800190020001410a30032
:1047b0000e40ad002e70880006c0a7000900200042
:1047c0001400a3000e40ad002e7088004e002000a3
:1047d000090478005470a3000e40ad002e708800cc
:1047e00031037800850363001460a3000e40ad0020
:1047f0002e708800e2c37b00074378001450a300aa
:104800000e40ad002e7088003470af000043eb0006
:104810001440a3000e40ad002e70880006f0a700e3
:10482000860378001430a3000e40ad002e7088007f
:1048300006e0a70087c3ea001420a3000e40ad00e5
:104840002e70880017029800190020001410a30091
:104850000e40ad002e70880006c0a70009002000a1
:104860001400a3000e40ad002e7088004e00200002
:10487000090478005470a3000e40ad002e7088002b
:1048800031037800850363001460a3000e40ad007f
:104890002e708800e2c37b00074378001450a30009
:1048a0000e40ad002e7088003470af000043eb0066
:1048b0001440a3000e40ad002e70880006f0a70043
:1048c000860378001430a3000e40ad002e708800df
:1048d00006e0a70087c3ea001420a3000e40ad0045
:1048e0002e70880017029800190020001410a300f1
:1048f0000e40ad002e70880006c0a7000900200001
:104900001400a3000e40ad002e7088004e00200061
:10491000090478005470a3000e40ad002e7088008a
:1049200031037800850363001460a3000e40ad00de
:104930002e708800e2c37b00074378001450a30068
:104940000e40ad002e7088003470af000043eb00c5
:104950001440a3000e40ad002e70880006f0a700a2
:10496000860378001430a3000e40ad002e7088003e
:1049700006e0a70087c3ea001420a3000e40ad00a4
:104980002e70880017029800190020001410a30050
:104990000e40ad002e70880006c0a7000900200060
:1049a0001400a3000e40ad002e7088004e002000c1
:1049b000090478005470a3000e40ad002e708800ea
:1049c00031037800850363001460a3000e40ad003e
:1049d0002e708800e2c37b00074378001450a300c8
:1049e0000e40ad002e7088003470af000043eb0025
:1049f0001440a3000e40ad002e70880006f0a70002
:104a0000860378001430a3000e40ad002e7088009d
:104a100006e0a70087c3ea001420a3000e40ad0003
:104a20002e70880017029800190020001410a300af
:104a30000e40ad002e70880006c0a70009002000bf
:104a40001400a3000e40ad002e7088004e00200020
:104a5000090478005470a3000e40ad002e70880049
:104a600031037800850363001460a3000e40ad009d
:104a70002e708800e2c37b00074378001450a30027
:104a80000e40ad002e7088003470af000043eb0084
:104a90001440a3000e40ad002e70880006f0a70061
:104aa000860378001430a3000e40ad002e708800fd
:104ab00006e0a70087c3ea001420a3000e40ad0063
:104ac0002e70880017029800190020001410a3000f
:104ad0000e40ad002e70880006c0a700090020001f
:104ae0001400a3000e40ad002e7088004e00200080
:104af000090478005470a3000e40ad002e708800a9
:104b000031037800850363001460a3000e40ad00fc
:104b10002e708800e2c37b00074378001450a30086
:104b20000e40ad002e7088003470af000043eb00e3
:104b30001440a3000e40ad002e70880006f0a700c0
:104b4000860378001430a3000e40ad002e7088005c
:104b500006e0a70087c3ea001420a3000e40ad00c2
:104b60002e70880017029800190020001410a3006e
:104b70000e40ad002e70880006c0a700090020007e
:104b80001400a3000e40ad002e7088004e002000df
:104b9000090478005470a3000e40ad002e70880008
:104ba00031037800850363001460a3000e40ad005c
:104bb0002e708800e2c37b00074378001450a300e6
:104bc0000e40ad002e7088003470af000043eb0043
:104bd0001440a3000e40ad002e70880006f0a70020
:104be000860378001430a3000e40ad002e708800bc
:104bf00006e0a70087c3ea001420a3000e40ad0022
:104c00002e70880017029800190020001410a300cd
:104c10000e40ad002e70880006c0a70009002000dd
:104c20001400a3000e40ad002e7088004e0020003e
:104c3000090478005470a3000e40ad002e70880067
:104c400031037800850363001460a3000e40ad00bb
:104c50002e708800e2c37b00074378001450a30045
:104c60000e40ad002e7088003470af000043eb00a2
:104c70001440a3000e40ad002e70880006f0a7007f
:104c8000860378001430a3000e40ad002e7088001b
:104c900006e0a70087c3ea001420a3000e40ad0081
:104ca0002e70880017029800190020001410a3002d
:104cb0000e40ad002e70880006c0a700090020003d
:104cc0001400a3000e40ad002e7088004e0020009e
:104cd000090478005470a3000e40ad002e708800c7
:104ce00031037800850363001460a3000e40ad001b
:104cf0002e708800e2c37b00074378001450a300a5
:104d00000e40ad002e7088003470af000043eb0001
:104d10001440a3000e40ad002e70880006f0a700de
:104d2000860378001430a3000e40ad002e7088007a
:104d300006e0a70087c3ea001420a3000e40ad00e0
:104d40002e70880017029800190020001410a3008c
:104d50000e40ad002e70880006c0a700090020009c
:104d60001400a3000e40ad002e7088004e002000fd
:104d7000090478005470a3000e40ad002e70880026
:104d800031037800850363001460a3000e40ad007a
:104d90002e708800e2c37b00074378001450a30004
:104da0000e40ad002e7088003470af000043eb0061
:104db0001440a3000e40ad002e70880006f0a7003e
:104dc000860378001430a3000e40ad002e708800da
:104dd00006e0a70087c3ea001420a3000e40ad0040
:104de0002e70880017029800190020001410a300ec
:104df0000e40ad002e70880006c0a70009002000fc
:104e00001400a3000e40ad002e7088004e0020005c
:104e1000090478005470a3000e40ad002e70880085
:104e200031037800850363001460a3000e40ad00d9
:104e30002e708800e2c37b00074378001450a30063
:104e40000e40ad002e7088003470af000043eb00c0
:104e50001440a3000e40ad002e70880006f0a7009d
:104e6000860378001430a3000e40ad002e70880039
:104e700006e0a70087c3ea001420a3000e40ad009f
:104e80002e70880017029800190020001410a3004b
:104e90000e40ad002e70880006c0a700090020005b
:104ea0001400a3000e40ad002e7088004e002000bc
:104eb000090478005470a3000e40ad002e708800e5
:104ec00031037800850363001460a3000e40ad0039
:104ed0002e708800e2c37b00074378001450a300c3
:104ee0000e40ad002e7088003470af000043eb0020
:104ef0001440a3000e40ad002e70880006f0a700fd
:104f0000860378001430a3000e40ad002e70880098
:104f100006e0a70087c3ea001420a3000e40ad00fe
:104f20002e70880017029800190020001410a300aa
:104f30000e40ad002e70880006c0a70009002000ba
:104f40001400a3000e40ad002e7088004e0020001b
:104f5000090478005470a3000e40ad002e70880044
:104f600031037800850363001460a3000e40ad0098
:104f70002e708800e2c37b00074378001450a30022
:104f80000e40ad002e7088003470af000043eb007f
:104f90001440a3000e40ad002e70880006f0a7005c
:104fa000860378001430a3000e40ad002e708800f8
:104fb00006e0a70087c3ea001420a3000e40ad005e
:104fc0002e70880017029800190020001410a3000a
:104fd0000e40ad002e70880006c0a700090020001a
:104fe0001400a3000e40ad002e7088004e0020007b
:104ff000090478005470a3000e40ad002e708800a4
:1050000031037800850363001460a3000e40ad00f7
:105010002e708800e2c37b00074378001450a30081
:105020000e40ad002e7088003470af000043eb00de
:105030001440a3000e40ad002e70880006f0a700bb
:10504000860378001430a3000e40ad002e70880057
:1050500006e0a70087c3ea001420a3000e40ad00bd
:105060002e70880017029800190020001410a30069
:105070000e40ad002e70880006c0a7000900200079
:105080001400a3000e40ad002e7088004e002000da
:10509000090478005470a3000e40ad002e70880003
:1050a00031037800850363001460a3000e40ad0057
:1050b0002e708800e2c37b00074378001450a300e1
:1050c0000e40ad002e7088003470af000043eb003e
:1050d0001440a3000e40ad002e70880006f0a7001b
:1050e000860378001430a3000e40ad002e708800b7
:1050f00006e0a70087c3ea001420a3000e40ad001d
:105100002e70880017029800190020001410a300c8
:105110000e40ad002e70880006c0a70009002000d8
:105120001400a3000e40ad002e7088004e00200039
:10513000090478005470a3000e40ad002e70880062
:1051400031037800850363001460a3000e40ad00b6
:105150002e708800e2c37b00074378001450a30040
:105160000e40ad002e7088003470af000043eb009d
:105170001440a3000e40ad002e70880006f0a7007a
:10518000860378001430a3000e40ad002e70880016
:1051900006e0a70087c3ea001420a3000e40ad007c
:1051a0002e70880017029800190020001410a30028
:1051b0000e40ad002e70880006c0a7000900200038
:1051c0001400a3000e40ad002e7088004e00200099
:1051d000090478005470a3000e40ad002e708800c2
:1051e00031037800850363001460a3000e40ad0016
:1051f0002e708800e2c37b00074378001450a300a0
:105200000e40ad002e7088003470af000043eb00fc
:105210001440a3000e40ad002e70880006f0a700d9
:10522000860378001430a3000e40ad002e70880075
:1052300006e0a70087c3ea001420a3000e40ad00db
:105240002e70880017029800190020001410a30087
:105250000e40ad002e70880006c0a7000900200097
:105260001400a3000e40ad002e7088004e002000f8
:10527000090478005470a3000e40ad002e70880021
:1052800031037800850363001460a3000e40ad0075
:105290002e708800e2c37b00074378001450a300ff
:1052a0000e40ad002e7088003470af000043eb005c
:1052b0001440a3000e40ad002e70880006f0a70039
:1052c000860378001430a3000e40ad002e708800d5
:1052d00006e0a70087c3ea001420a3000e40ad003b
:1052e0002e70880017029800190020001410a300e7
:1052f0000e40ad002e70880006c0a70009002000f7
:105300001400a3000e40ad002e7088004e00200057
:10531000090478005470a3000e40ad002e70880080
:1053200031037800850363001460a3000e40ad00d4
:105330002e708800e2c37b00074378001450a3005e
:105340000e40ad002e7088003470af000043eb00bb
:105350001440a3000e40ad002e70880006f0a70098
:10536000860378001430a3000e40ad002e70880034
:1053700006e0a70087c3ea001420a3000e40ad009a
:105380002e70880017029800190020001410a30046
:105390000e40ad002e70880006c0a7000900200056
:1053a0001400a3000e40ad002e7088004e002000b7
:1053b000090478005470a3000e40ad002e708800e0
:1053c00031037800850363001460a3000e40ad0034
:1053d0002e708800e2c37b00074378001450a300be
:1053e0000e40ad002e7088003470af000043eb001b
:1053f0001440a3000e40ad002e70880006f0a700f8
:10540000860378001430a3000e40ad002e70880093
:1054100006e0a70087c3ea001420a3000e40ad00f9
:105420002e70880017029800190020001410a300a5
:105430000e40ad002e70880006c0a70009002000b5
:105440001400a3000e40ad002e7088004e00200016
:10545000090478005470a3000e40ad002e7088003f
:1054600031037800850363001460a3000e40ad0093
:105470002e708800e2c37b00074378001450a3001d
:105480000e40ad002e7088003470af000043eb007a
:105490001440a3000e40ad002e70880006f0a70057
:1054a000860378001430a3000e40ad002e708800f3
:1054b00006e0a70087c3ea001420a3000e40ad0059
:1054c0002e70880017029800190020001410a30005
:1054d0000e40ad002e70880006c0a7000900200015
:1054e0001400a3000e40ad002e7088004e00200076
:1054f000090478005470a3000e40ad002e7088009f
:1055000031037800850363001460a3000e40ad00f2
:105510002e708800e2c37b00074378001450a3007c
:105520000e40ad002e7088003470af000043eb00d9
:105530001440a3000e40ad002e70880006f0a700b6
:10554000860378001430a3000e40ad002e70880052
:1055500006e0a70087c3ea001420a3000e40ad00b8
:105560002e70880017029800190020001410a30064
:105570000e40ad002e70880006c0a7000900200074
:105580001400a3000e40ad002e7088004e002000d5
:10559000090478005470a3000e40ad002e708800fe
:1055a00031037800850363001460a3000e40ad0052
:1055b0002e708800e2c37b00074378001450a300dc
:1055c0000e40ad002e7088003470af000043eb0039
:1055d0001440a3000e40ad002e70880006f0a70016
:1055e000860378001430a3000e40ad002e708800b2
:1055f00006e0a70087c3ea001420a3000e40ad0018
:105600002e70880017029800190020001410a300c3
:105610000e40ad002e70880006c0a70009002000d3
:105620001400a3000e40ad002e7088004e00200034
:10563000090478005470a3000e40ad002e7088005d
:1056400031037800850363001460a3000e40ad00b1
:105650002e708800e2c37b00074378001450a3003b
:105660000e40ad002e7088003470af000043eb0098
:105670001440a3000e40ad002e70880006f0a70075
:10568000860378001430a3000e40ad002e70880011
:1056900006e0a70087c3ea001420a3000e40ad0077
:1056a0002e70880017029800190020001410a30023
:1056b0000e40ad002e70880006c0a7000900200033
:1056c0001400a3000e40ad002e7088004e00200094
:1056d000090478005470a3000e40ad002e708800bd
:1056e00031037800850363001460a3000e40ad0011
:1056f0002e708800e2c37b00074378001450a3009b
:105700000e40ad002e7088003470af000043eb00f7
:105710001440a3000e40ad002e70880006f0a700d4
:10572000860378001430a3000e40ad002e70880070
:1057300006e0a70087c3ea001420a3000e40ad00d6
:105740002e70880017029800190020001410a30082
:105750000e40ad002e70880006c0a7000900200092
:105760001400a3000e40ad002e7088004e002000f3
:10577000090478005470a3000e40ad002e7088001c
:1057800031037800850363001460a3000e40ad0070
:105790002e708800e2c37b00074378001450a300fa
:1057a0000e40ad002e7088003470af000043eb0057
:1057b0001440a3000e40ad002e70880006f0a70034
:1057c000860378001430a3000e40ad002e708800d0
:1057d00006e0a70087c3ea001420a3000e40ad0036
:1057e0002e70880017029800190020001410a300e2
:1057f0000e40ad002e70880006c0a70009002000f2
:105800001400a3000e40ad002e7088004e00200052
:10581000090478005470a3000e40ad002e7088007b
:1058200031037800850363001460a3000e40ad00cf
:105830002e708800e2c37b00074378001450a30059
:105840000e40ad002e7088003470af000043eb00b6
:105850001440a3000e40ad002e70880006f0a70093
:10586000860378001430a3000e40ad002e7088002f
:1058700006e0a70087c3ea001420a3000e40ad0095
:105880002e70880017029800190020001410a30041
:105890000e40ad002e70880006c0a7000900200051
:1058a0001400a3000e40ad002e7088004e002000b2
:1058b000090478005470a3000e40ad002e708800db
:1058c00031037800850363001460a3000e40ad002f
:1058d0002e708800e2c37b00074378001450a300b9
:1058e0000e40ad002e7088003470af000043eb0016
:1058f0001440a3000e40ad002e70880006f0a700f3
:10590000860378001430a3000e40ad002e7088008e
:1059100006e0a70087c3ea001420a3000e40ad00f4
:105920002e70880017029800190020001410a300a0
:105930000e40ad002e70880006c0a70009002000b0
:105940001400a3000e40ad002e7088004e00200011
:10595000090478005470a3000e40ad002e7088003a
:1059600031037800850363001460a3000e40ad008e
:105970002e708800e2c37b00074378001450a30018
:105980000e40ad002e7088003470af000043eb0075
:105990001440a3000e40ad002e70880006f0a70052
:1059a000860378001430a3000e40ad002e708800ee
:1059b00006e0a70087c3ea001420a3000e40ad0054
:1059c0002e70880017029800190020001410a30000
:1059d0000e40ad002e70880006c0a7000900200010
:1059e0001400a3000e40ad002e7088004e00200071
:1059f000090478005470a3000e40ad002e7088009a
:105a000031037800850363001460a3000e40ad00ed
:105a10002e708800e2c37b00074378001450a30077
:105a20000e40ad002e7088003470af000043eb00d4
:105a30001440a3000e40ad002e70880006f0a700b1
:105a4000860378001430a3000e40ad002e7088004d
:105a500006e0a70087c3ea001420a3000e40ad00b3
:105a60002e70880017029800190020001410a3005f
:105a70000e40ad002e70880006c0a700090020006f
:105a80001400a3000e40ad002e7088004e002000d0
:105a9000090478005470a3000e40ad002e708800f9
:105aa00031037800850363001460a3000e40ad004d
:105ab0002e708800e2c37b00074378001450a300d7
:105ac0000e40ad002e7088003470af000043eb0034
:105ad0001440a3000e40ad002e70880006f0a70011
:105ae000860378001430a3000e40ad002e708800ad
:105af00006e0a70087c3ea001420a3000e40ad0013
:105b00002e70880017029800190020001410a300be
:105b10000e40ad002e70880006c0a70009002000ce
:105b20001400a3000e40ad002e7088004e0020002f
:105b3000090478005470a3000e40ad002e70880058
:105b400031037800850363001460a3000e40ad00ac
:105b50002e708800e2c37b00074378001450a30036
:105b60000e40ad002e7088003470af000043eb0093
:105b70001440a3000e40ad002e70880006f0a70070
:105b8000860378001430a3000e40ad002e7088000c
:105b900006e0a70087c3ea001420a3000e40ad0072
:105ba0002e70880017029800190020001410a3001e
:105bb0000e40ad002e70880006c0a700090020002e
:105bc0001400a3000e40ad002e7088004e0020008f
:105bd000090478005470a3000e40ad002e708800b8
:105be00031037800850363001460a3000e40ad000c
:105bf0002e708800e2c37b00074378001450a30096
:105c00000e40ad002e7088003470af000043eb00f2
:105c10001440a3000e40ad002e70880006f0a700cf
:105c2000860378001430a3000e40ad002e7088006b
:105c300006e0a70087c3ea001420a3000e40ad00d1
:105c40002e70880017029800190020001410a3007d
:105c50000e40ad002e70880006c0a700090020008d
:105c60001400a3000e40ad002e7088004e002000ee
:105c7000090478005470a3000e40ad002e70880017
:105c800031037800850363001460a3000e40ad006b
:105c90002e708800e2c37b00074378001450a300f5
:105ca0000e40ad002e7088003470af000043eb0052
:105cb0001440a3000e40ad002e70880006f0a7002f
:105cc000860378001430a3000e40ad002e708800cb
:105cd00006e0a70087c3ea001420a3000e40ad0031
:105ce0002e70880017029800190020001410a300dd
:105cf0000e40ad002e70880006c0a70009002000ed
:105d00001400a3000e40ad002e7088004e0020004d
:105d1000090478005470a3000e40ad002e70880076
:105d200031037800850363001460a3000e40ad00ca
:105d30002e708800e2c37b00074378001450a30054
:105d40000e40ad002e7088003470af000043eb00b1
:105d50001440a3000e40ad002e70880006f0a7008e
:105d6000860378001430a3000e40ad002e7088002a
:105d700006e0a70087c3ea001420a3000e40ad0090
:105d80002e70880017029800190020001410a3003c
:105d90000e40ad002e70880006c0a700090020004c
:105da0001400a3000e40ad002e7088004e002000ad
:105db000090478005470a3000e40ad002e708800d6
:105dc00031037800850363001460a3000e40ad002a
:105dd0002e708800e2c37b00074378001450a300b4
:105de0000e40ad002e7088003470af000043eb0011
:105df0001440a3000e40ad002e70880006f0a700ee
:105e0000860378001430a3000e40ad002e70880089
:105e100006e0a70087c3ea001420a3000e40ad00ef
:105e20002e70880017029800190020001410a3009b
:105e30000e40ad002e70880006c0a70009002000ab
:105e40001400a3000e40ad002e7088004e0020000c
:105e5000090478005470a3000e40ad002e70880035
:105e600031037800850363001460a3000e40ad0089
:105e70002e708800e2c37b00074378001450a30013
:105e80000e40ad002e7088003470af000043eb0070
:105e90001440a3000e40ad002e70880006f0a7004d
:105ea000860378001430a3000e40ad002e708800e9
:105eb00006e0a70087c3ea001420a3000e40ad004f
:105ec0002e70880017029800190020001410a300fb
:105ed0000e40ad002e70880006c0a700090020000b
:105ee0001400a3000e40ad002e7088004e0020006c
:105ef000090478005470a3000e40ad002e70880095
:105f000031037800850363001460a3000e40ad00e8
:105f10002e708800e2c37b00074378001450a30072
:105f20000e40ad002e7088003470af000043eb00cf
:105f30001440a3000e40ad002e70880006f0a700ac
:105f4000860378001430a3000e40ad002e70880048
:105f500006e0a70087c3ea001420a3000e40ad00ae
:105f60002e70880017029800190020001410a3005a
:105f70000e40ad002e70880006c0a700090020006a
:105f80001400a3000e40ad002e7088004e002000cb
:105f9000090478005470a3000e40ad002e708800f4
:105fa00031037800850363001460a3000e40ad0048
:105fb0002e708800e2c37b00074378001450a300d2
:105fc0000e40ad002e7088003470af000043eb002f
:105fd0001440a3000e40ad002e70880006f0a7000c
:105fe000860378001430a3000e40ad002e708800a8
:105ff00006e0a70087c3ea001420a3000e40ad000e
:106000002e70880017029800190020001410a300b9
:106010000e40ad002e70880006c0a70009002000c9
:106020001400a3000e40ad002e7088004e0020002a
:10603000090478005470a3000e40ad002e70880053
:1060400031037800850363001460a3000e40ad00a7
:106050002e708800e2c37b00074378001450a30031
:106060000e40ad002e7088003470af000043eb008e
:106070001440a3000e40ad002e70880006f0a7006b
:10608000860378001430a3000e40ad002e70880007
:1060900006e0a70087c3ea001420a3000e40ad006d
:1060a0002e70880017029800190020001410a30019
:1060b0000e40ad002e70880006c0a7000900200029
:1060c0001400a3000e40ad002e7088004e0020008a
:1060d000090478005470a3000e40ad002e708800b3
:1060e00031037800850363001460a3000e40ad0007
:1060f0002e708800e2c37b00074378001450a30091
:106100000e40ad002e7088003470af000043eb00ed
:106110001440a3000e40ad002e70880006f0a700ca
:10612000860378001430a3000e40ad002e70880066
